{
  "address": "0x4Ad71B13a398466CCC40F98c3B38eeD00A4263e2",
  "abi": [
    {
      "inputs": [],
      "stateMutability": "nonpayable",
      "type": "constructor"
    },
    {
      "anonymous": false,
      "inputs": [
        {
          "indexed": true,
          "internalType": "address",
          "name": "owner",
          "type": "address"
        },
        {
          "indexed": true,
          "internalType": "address",
          "name": "approved",
          "type": "address"
        },
        {
          "indexed": true,
          "internalType": "uint256",
          "name": "tokenId",
          "type": "uint256"
        }
      ],
      "name": "Approval",
      "type": "event"
    },
    {
      "anonymous": false,
      "inputs": [
        {
          "indexed": true,
          "internalType": "address",
          "name": "owner",
          "type": "address"
        },
        {
          "indexed": true,
          "internalType": "address",
          "name": "operator",
          "type": "address"
        },
        {
          "indexed": false,
          "internalType": "bool",
          "name": "approved",
          "type": "bool"
        }
      ],
      "name": "ApprovalForAll",
      "type": "event"
    },
    {
      "anonymous": false,
      "inputs": [
        {
          "indexed": false,
          "internalType": "uint256",
          "name": "_fromTokenId",
          "type": "uint256"
        },
        {
          "indexed": false,
          "internalType": "uint256",
          "name": "_toTokenId",
          "type": "uint256"
        }
      ],
      "name": "BatchMetadataUpdate",
      "type": "event"
    },
    {
      "anonymous": false,
      "inputs": [
        {
          "indexed": false,
          "internalType": "uint256",
          "name": "_tokenId",
          "type": "uint256"
        }
      ],
      "name": "MetadataUpdate",
      "type": "event"
    },
    {
      "anonymous": false,
      "inputs": [
        {
          "indexed": true,
          "internalType": "address",
          "name": "from",
          "type": "address"
        },
        {
          "indexed": true,
          "internalType": "address",
          "name": "to",
          "type": "address"
        },
        {
          "indexed": true,
          "internalType": "uint256",
          "name": "tokenId",
          "type": "uint256"
        }
      ],
      "name": "Transfer",
      "type": "event"
    },
    {
      "anonymous": false,
      "inputs": [
        {
          "indexed": false,
          "internalType": "address",
          "name": "playerChallenger",
          "type": "address"
        },
        {
          "indexed": false,
          "internalType": "address",
          "name": "playerChallenged",
          "type": "address"
        },
        {
          "indexed": true,
          "internalType": "uint256",
          "name": "tokenIdAttacker",
          "type": "uint256"
        },
        {
          "indexed": true,
          "internalType": "uint256",
          "name": "tokenIdAttacked",
          "type": "uint256"
        }
      ],
      "name": "attackInMatchEvent",
      "type": "event"
    },
    {
      "anonymous": false,
      "inputs": [
        {
          "indexed": true,
          "internalType": "uint256",
          "name": "cardOne",
          "type": "uint256"
        },
        {
          "indexed": true,
          "internalType": "uint256",
          "name": "cardTwo",
          "type": "uint256"
        },
        {
          "indexed": true,
          "internalType": "uint256",
          "name": "cardThree",
          "type": "uint256"
        }
      ],
      "name": "openedPackByPlayer",
      "type": "event"
    },
    {
      "inputs": [
        {
          "internalType": "uint256",
          "name": "_matchId",
          "type": "uint256"
        },
        {
          "internalType": "uint256",
          "name": "_tokenId",
          "type": "uint256"
        }
      ],
      "name": "InitializeTokenIdDefensePointsInMatch",
      "outputs": [],
      "stateMutability": "nonpayable",
      "type": "function"
    },
    {
      "inputs": [
        {
          "internalType": "address",
          "name": "to",
          "type": "address"
        },
        {
          "internalType": "uint256",
          "name": "tokenId",
          "type": "uint256"
        }
      ],
      "name": "approve",
      "outputs": [],
      "stateMutability": "nonpayable",
      "type": "function"
    },
    {
      "inputs": [
        {
          "internalType": "address",
          "name": "_playerChallenger",
          "type": "address"
        },
        {
          "internalType": "address",
          "name": "_playerChallenged",
          "type": "address"
        },
        {
          "internalType": "uint256",
          "name": "_tokenIdAttacker",
          "type": "uint256"
        },
        {
          "internalType": "uint256",
          "name": "_tokenIdAttacked",
          "type": "uint256"
        }
      ],
      "name": "attackInMatch",
      "outputs": [],
      "stateMutability": "nonpayable",
      "type": "function"
    },
    {
      "inputs": [
        {
          "internalType": "uint256",
          "name": "",
          "type": "uint256"
        }
      ],
      "name": "attributes",
      "outputs": [
        {
          "internalType": "enum MarketClash.Class",
          "name": "Class",
          "type": "uint8"
        },
        {
          "internalType": "uint8",
          "name": "attack",
          "type": "uint8"
        },
        {
          "internalType": "uint8",
          "name": "defence",
          "type": "uint8"
        }
      ],
      "stateMutability": "view",
      "type": "function"
    },
    {
      "inputs": [
        {
          "internalType": "address",
          "name": "owner",
          "type": "address"
        }
      ],
      "name": "balanceOf",
      "outputs": [
        {
          "internalType": "uint256",
          "name": "",
          "type": "uint256"
        }
      ],
      "stateMutability": "view",
      "type": "function"
    },
    {
      "inputs": [
        {
          "internalType": "uint256",
          "name": "_matchId",
          "type": "uint256"
        },
        {
          "internalType": "address",
          "name": "_playerChallenger",
          "type": "address"
        },
        {
          "internalType": "address",
          "name": "_playerChallenged",
          "type": "address"
        }
      ],
      "name": "checkForWinnerInMatch",
      "outputs": [
        {
          "internalType": "address",
          "name": "",
          "type": "address"
        }
      ],
      "stateMutability": "view",
      "type": "function"
    },
    {
      "inputs": [
        {
          "internalType": "uint256",
          "name": "",
          "type": "uint256"
        }
      ],
      "name": "classMapping",
      "outputs": [
        {
          "internalType": "string",
          "name": "",
          "type": "string"
        }
      ],
      "stateMutability": "view",
      "type": "function"
    },
    {
      "inputs": [
        {
          "internalType": "uint256[]",
          "name": "_arrayOfCards",
          "type": "uint256[]"
        }
      ],
      "name": "createDeck",
      "outputs": [],
      "stateMutability": "nonpayable",
      "type": "function"
    },
    {
      "inputs": [
        {
          "internalType": "address",
          "name": "",
          "type": "address"
        },
        {
          "internalType": "uint256",
          "name": "",
          "type": "uint256"
        }
      ],
      "name": "deckOfPlayer",
      "outputs": [
        {
          "internalType": "uint256",
          "name": "",
          "type": "uint256"
        }
      ],
      "stateMutability": "view",
      "type": "function"
    },
    {
      "inputs": [
        {
          "internalType": "uint256",
          "name": "",
          "type": "uint256"
        },
        {
          "internalType": "address",
          "name": "",
          "type": "address"
        },
        {
          "internalType": "uint256",
          "name": "",
          "type": "uint256"
        }
      ],
      "name": "deckUsedInMatchByPlayer",
      "outputs": [
        {
          "internalType": "uint256",
          "name": "",
          "type": "uint256"
        }
      ],
      "stateMutability": "view",
      "type": "function"
    },
    {
      "inputs": [
        {
          "internalType": "uint256",
          "name": "tokenId",
          "type": "uint256"
        }
      ],
      "name": "getApproved",
      "outputs": [
        {
          "internalType": "address",
          "name": "",
          "type": "address"
        }
      ],
      "stateMutability": "view",
      "type": "function"
    },
    {
      "inputs": [],
      "name": "getBtcPrice",
      "outputs": [
        {
          "internalType": "uint256",
          "name": "",
          "type": "uint256"
        }
      ],
      "stateMutability": "view",
      "type": "function"
    },
    {
      "inputs": [
        {
          "internalType": "address",
          "name": "_address",
          "type": "address"
        }
      ],
      "name": "getDeckOfPlayer",
      "outputs": [
        {
          "internalType": "uint256[]",
          "name": "",
          "type": "uint256[]"
        }
      ],
      "stateMutability": "view",
      "type": "function"
    },
    {
      "inputs": [
        {
          "internalType": "uint256",
          "name": "_matchId",
          "type": "uint256"
        },
        {
          "internalType": "address",
          "name": "_player",
          "type": "address"
        }
      ],
      "name": "getDeckUsedInMatchByPlayer",
      "outputs": [
        {
          "internalType": "uint256[]",
          "name": "",
          "type": "uint256[]"
        }
      ],
      "stateMutability": "view",
      "type": "function"
    },
    {
      "inputs": [],
      "name": "getETHPrice",
      "outputs": [
        {
          "internalType": "uint256",
          "name": "",
          "type": "uint256"
        }
      ],
      "stateMutability": "view",
      "type": "function"
    },
    {
      "inputs": [],
      "name": "getLinkPrice",
      "outputs": [
        {
          "internalType": "uint256",
          "name": "",
          "type": "uint256"
        }
      ],
      "stateMutability": "view",
      "type": "function"
    },
    {
      "inputs": [],
      "name": "getPlayersWithDeck",
      "outputs": [
        {
          "internalType": "address[]",
          "name": "",
          "type": "address[]"
        }
      ],
      "stateMutability": "view",
      "type": "function"
    },
    {
      "inputs": [
        {
          "internalType": "address",
          "name": "_address",
          "type": "address"
        }
      ],
      "name": "getRecentPackOpenedByUser",
      "outputs": [
        {
          "internalType": "uint256[]",
          "name": "",
          "type": "uint256[]"
        }
      ],
      "stateMutability": "view",
      "type": "function"
    },
    {
      "inputs": [
        {
          "internalType": "uint256",
          "name": "multiplier",
          "type": "uint256"
        }
      ],
      "name": "getStatBtc",
      "outputs": [
        {
          "internalType": "uint256",
          "name": "",
          "type": "uint256"
        }
      ],
      "stateMutability": "view",
      "type": "function"
    },
    {
      "inputs": [
        {
          "internalType": "uint256",
          "name": "multiplier",
          "type": "uint256"
        }
      ],
      "name": "getStatETH",
      "outputs": [
        {
          "internalType": "uint256",
          "name": "",
          "type": "uint256"
        }
      ],
      "stateMutability": "view",
      "type": "function"
    },
    {
      "inputs": [
        {
          "internalType": "uint256",
          "name": "multiplier",
          "type": "uint256"
        }
      ],
      "name": "getStatLink",
      "outputs": [
        {
          "internalType": "uint256",
          "name": "",
          "type": "uint256"
        }
      ],
      "stateMutability": "view",
      "type": "function"
    },
    {
      "inputs": [
        {
          "internalType": "uint256",
          "name": "",
          "type": "uint256"
        }
      ],
      "name": "imageMapping",
      "outputs": [
        {
          "internalType": "string",
          "name": "",
          "type": "string"
        }
      ],
      "stateMutability": "view",
      "type": "function"
    },
    {
      "inputs": [
        {
          "internalType": "address",
          "name": "_challangedPlayer",
          "type": "address"
        }
      ],
      "name": "initializeMatch",
      "outputs": [],
      "stateMutability": "nonpayable",
      "type": "function"
    },
    {
      "inputs": [
        {
          "internalType": "address",
          "name": "owner",
          "type": "address"
        },
        {
          "internalType": "address",
          "name": "operator",
          "type": "address"
        }
      ],
      "name": "isApprovedForAll",
      "outputs": [
        {
          "internalType": "bool",
          "name": "",
          "type": "bool"
        }
      ],
      "stateMutability": "view",
      "type": "function"
    },
    {
      "inputs": [
        {
          "internalType": "address",
          "name": "",
          "type": "address"
        },
        {
          "internalType": "address",
          "name": "",
          "type": "address"
        }
      ],
      "name": "matchId",
      "outputs": [
        {
          "internalType": "uint256",
          "name": "",
          "type": "uint256"
        }
      ],
      "stateMutability": "view",
      "type": "function"
    },
    {
      "inputs": [],
      "name": "matchIdCounter",
      "outputs": [
        {
          "internalType": "uint256",
          "name": "",
          "type": "uint256"
        }
      ],
      "stateMutability": "view",
      "type": "function"
    },
    {
      "inputs": [
        {
          "internalType": "address",
          "name": "to",
          "type": "address"
        },
        {
          "internalType": "enum MarketClash.Class",
          "name": "_class",
          "type": "uint8"
        }
      ],
      "name": "mint",
      "outputs": [
        {
          "internalType": "uint256",
          "name": "_tokenIdMinted",
          "type": "uint256"
        }
      ],
      "stateMutability": "nonpayable",
      "type": "function"
    },
    {
      "inputs": [],
      "name": "name",
      "outputs": [
        {
          "internalType": "string",
          "name": "",
          "type": "string"
        }
      ],
      "stateMutability": "view",
      "type": "function"
    },
    {
      "inputs": [
        {
          "internalType": "enum MarketClash.Class",
          "name": "_firstCardClass",
          "type": "uint8"
        },
        {
          "internalType": "enum MarketClash.Class",
          "name": "_secondCardClass",
          "type": "uint8"
        },
        {
          "internalType": "enum MarketClash.Class",
          "name": "_thirdCardClass",
          "type": "uint8"
        }
      ],
      "name": "openPack",
      "outputs": [],
      "stateMutability": "nonpayable",
      "type": "function"
    },
    {
      "inputs": [
        {
          "internalType": "uint256",
          "name": "tokenId",
          "type": "uint256"
        }
      ],
      "name": "ownerOf",
      "outputs": [
        {
          "internalType": "address",
          "name": "",
          "type": "address"
        }
      ],
      "stateMutability": "view",
      "type": "function"
    },
    {
      "inputs": [
        {
          "internalType": "uint256",
          "name": "",
          "type": "uint256"
        }
      ],
      "name": "player1InMatch",
      "outputs": [
        {
          "internalType": "address",
          "name": "",
          "type": "address"
        }
      ],
      "stateMutability": "view",
      "type": "function"
    },
    {
      "inputs": [
        {
          "internalType": "uint256",
          "name": "",
          "type": "uint256"
        }
      ],
      "name": "player2InMatch",
      "outputs": [
        {
          "internalType": "address",
          "name": "",
          "type": "address"
        }
      ],
      "stateMutability": "view",
      "type": "function"
    },
    {
      "inputs": [
        {
          "internalType": "address",
          "name": "",
          "type": "address"
        }
      ],
      "name": "playerHasDeck",
      "outputs": [
        {
          "internalType": "bool",
          "name": "",
          "type": "bool"
        }
      ],
      "stateMutability": "view",
      "type": "function"
    },
    {
      "inputs": [
        {
          "internalType": "uint256",
          "name": "",
          "type": "uint256"
        }
      ],
      "name": "playersWithDecks",
      "outputs": [
        {
          "internalType": "address",
          "name": "",
          "type": "address"
        }
      ],
      "stateMutability": "view",
      "type": "function"
    },
    {
      "inputs": [
        {
          "internalType": "address",
          "name": "",
          "type": "address"
        },
        {
          "internalType": "uint256",
          "name": "",
          "type": "uint256"
        }
      ],
      "name": "recentOpenedPackByPlayer",
      "outputs": [
        {
          "internalType": "uint256",
          "name": "",
          "type": "uint256"
        }
      ],
      "stateMutability": "view",
      "type": "function"
    },
    {
      "inputs": [
        {
          "internalType": "address",
          "name": "from",
          "type": "address"
        },
        {
          "internalType": "address",
          "name": "to",
          "type": "address"
        },
        {
          "internalType": "uint256",
          "name": "tokenId",
          "type": "uint256"
        }
      ],
      "name": "safeTransferFrom",
      "outputs": [],
      "stateMutability": "nonpayable",
      "type": "function"
    },
    {
      "inputs": [
        {
          "internalType": "address",
          "name": "from",
          "type": "address"
        },
        {
          "internalType": "address",
          "name": "to",
          "type": "address"
        },
        {
          "internalType": "uint256",
          "name": "tokenId",
          "type": "uint256"
        },
        {
          "internalType": "bytes",
          "name": "data",
          "type": "bytes"
        }
      ],
      "name": "safeTransferFrom",
      "outputs": [],
      "stateMutability": "nonpayable",
      "type": "function"
    },
    {
      "inputs": [
        {
          "internalType": "address",
          "name": "operator",
          "type": "address"
        },
        {
          "internalType": "bool",
          "name": "approved",
          "type": "bool"
        }
      ],
      "name": "setApprovalForAll",
      "outputs": [],
      "stateMutability": "nonpayable",
      "type": "function"
    },
    {
      "inputs": [
        {
          "internalType": "bytes4",
          "name": "interfaceId",
          "type": "bytes4"
        }
      ],
      "name": "supportsInterface",
      "outputs": [
        {
          "internalType": "bool",
          "name": "",
          "type": "bool"
        }
      ],
      "stateMutability": "view",
      "type": "function"
    },
    {
      "inputs": [],
      "name": "symbol",
      "outputs": [
        {
          "internalType": "string",
          "name": "",
          "type": "string"
        }
      ],
      "stateMutability": "view",
      "type": "function"
    },
    {
      "inputs": [
        {
          "internalType": "uint256",
          "name": "",
          "type": "uint256"
        }
      ],
      "name": "tokenIdAttack",
      "outputs": [
        {
          "internalType": "uint256",
          "name": "",
          "type": "uint256"
        }
      ],
      "stateMutability": "view",
      "type": "function"
    },
    {
      "inputs": [
        {
          "internalType": "uint256",
          "name": "",
          "type": "uint256"
        },
        {
          "internalType": "uint256",
          "name": "",
          "type": "uint256"
        }
      ],
      "name": "tokenIdAttackPointsInMatch",
      "outputs": [
        {
          "internalType": "uint256",
          "name": "",
          "type": "uint256"
        }
      ],
      "stateMutability": "view",
      "type": "function"
    },
    {
      "inputs": [],
      "name": "tokenIdCounter",
      "outputs": [
        {
          "internalType": "uint256",
          "name": "_value",
          "type": "uint256"
        }
      ],
      "stateMutability": "view",
      "type": "function"
    },
    {
      "inputs": [
        {
          "internalType": "uint256",
          "name": "",
          "type": "uint256"
        }
      ],
      "name": "tokenIdDefense",
      "outputs": [
        {
          "internalType": "uint256",
          "name": "",
          "type": "uint256"
        }
      ],
      "stateMutability": "view",
      "type": "function"
    },
    {
      "inputs": [
        {
          "internalType": "uint256",
          "name": "",
          "type": "uint256"
        },
        {
          "internalType": "uint256",
          "name": "",
          "type": "uint256"
        }
      ],
      "name": "tokenIdDefensePointsInMatch",
      "outputs": [
        {
          "internalType": "uint256",
          "name": "",
          "type": "uint256"
        }
      ],
      "stateMutability": "view",
      "type": "function"
    },
    {
      "inputs": [
        {
          "internalType": "uint256",
          "name": "tokenId",
          "type": "uint256"
        }
      ],
      "name": "tokenURI",
      "outputs": [
        {
          "internalType": "string",
          "name": "",
          "type": "string"
        }
      ],
      "stateMutability": "view",
      "type": "function"
    },
    {
      "inputs": [
        {
          "internalType": "address",
          "name": "from",
          "type": "address"
        },
        {
          "internalType": "address",
          "name": "to",
          "type": "address"
        },
        {
          "internalType": "uint256",
          "name": "tokenId",
          "type": "uint256"
        }
      ],
      "name": "transferFrom",
      "outputs": [],
      "stateMutability": "nonpayable",
      "type": "function"
    },
    {
      "inputs": [
        {
          "internalType": "uint256",
          "name": "",
          "type": "uint256"
        }
      ],
      "name": "turnOfPlayer",
      "outputs": [
        {
          "internalType": "address",
          "name": "",
          "type": "address"
        }
      ],
      "stateMutability": "view",
      "type": "function"
    },
    {
      "inputs": [
        {
          "internalType": "uint256",
          "name": "number",
          "type": "uint256"
        }
      ],
      "name": "uintToArray",
      "outputs": [
        {
          "internalType": "uint8[]",
          "name": "",
          "type": "uint8[]"
        }
      ],
      "stateMutability": "pure",
      "type": "function"
    },
    {
      "inputs": [
        {
          "internalType": "uint256",
          "name": "",
          "type": "uint256"
        }
      ],
      "name": "winnerOfMatch",
      "outputs": [
        {
          "internalType": "address",
          "name": "",
          "type": "address"
        }
      ],
      "stateMutability": "view",
      "type": "function"
    }
  ],
  "transactionHash": "0x31319401f3070b07650b6730f8d13b5523c25bf4b8627ffdf25d94b4c82543c8",
  "args": [],
  "numDeployments": 29,
  "solcInputHash": "9227eeaa081578bd399aae4ed2c898d5",
  "bytecode": "0x60016013819055601d80546001600160a01b03199081167387dce67002e66c17bc0d723fe20d736b80caafda17909155601e805482167359f1ec1f10bd7ed9b938431086bc1d9e233ecf41179055601f805490911673ac3e04999aefe44d508cb3f9b972b0ecd07c1efb17905560036020556002602155602255610120604052606c608081815290620039c460a0396023906200009d908262000257565b506040518060a00160405280606c815260200162003958606c9139602490620000c7908262000257565b506040518060a00160405280606c815260200162003a30606c9139602590620000f1908262000257565b5060006026553480156200010457600080fd5b506040518060400160405280600b81526020016a09ac2e4d6cae886d8c2e6d60ab1b815250604051806040016040528060028152602001614d4b60f01b815250816000908162000155919062000257565b50600162000164828262000257565b5050601d54601a80546001600160a01b039283166001600160a01b031991821617909155601e54601b8054918416918316919091179055601f54601c80549190931691161790555062000323565b634e487b7160e01b600052604160045260246000fd5b600181811c90821680620001dd57607f821691505b602082108103620001fe57634e487b7160e01b600052602260045260246000fd5b50919050565b601f8211156200025257600081815260208120601f850160051c810160208610156200022d5750805b601f850160051c820191505b818110156200024e5782815560010162000239565b5050505b505050565b81516001600160401b03811115620002735762000273620001b2565b6200028b81620002848454620001c8565b8462000204565b602080601f831160018114620002c35760008415620002aa5750858301515b600019600386901b1c1916600185901b1785556200024e565b600085815260208120601f198616915b82811015620002f457888601518255948401946001909101908401620002d3565b5085821015620003135787850151600019600388901b60f8161c191681555b5050505050600190811b01905550565b61362580620003336000396000f3fe608060405234801561001057600080fd5b50600436106102d65760003560e01c806383acda6111610182578063b88d4fde116100e9578063d77691ee116100a2578063e985e9c51161007c578063e985e9c514610766578063ec16f582146107a2578063f17f39b3146107cd578063ffe52aeb146107e057600080fd5b8063d77691ee1461072d578063ddc3183e14610740578063e7f3be521461075357600080fd5b8063b88d4fde14610673578063bb92947b14610686578063c87b56dd14610699578063cf072d9e146106ac578063d05dcc6a146106bf578063d22fdebd1461070457600080fd5b80639ba82a331161013b5780639ba82a33146105dc578063a22cb465146105fc578063a2cdd2b81461060f578063a607a8d914610624578063b16045bc1461062c578063b466dc731461063f57600080fd5b806383acda6114610561578063919f06491461057457806393b1c4e01461059457806395d89b41146105a757806398bdf6f5146105af5780639a35cc49146105b957600080fd5b806330b9da82116102415780635c846f78116101fa57806369e12c1f116101d457806369e12c1f146105155780636c9e4e251461052857806370a082311461053b5780637afc86621461054e57600080fd5b80635c846f78146104c65780636352211e146104ef578063691562a01461050257600080fd5b806330b9da821461043b5780633a3610bc146104645780633ad466b91461046c57806342842e0e146104975780634fdc2fb4146104aa57806359d1f3c7146104b357600080fd5b806322ea46111161029357806322ea4611146103b1578063239c8332146103d157806323b872dd146103e457806325bda9d8146103f75780632dddd49c1461040a578063309c8c9b1461041257600080fd5b806301ffc9a7146102db57806306fdde0314610303578063081812fc14610318578063095ea7b3146103435780630c3f2102146103585780631ac3a0fb14610391575b600080fd5b6102ee6102e9366004612900565b6107f3565b60405190151581526020015b60405180910390f35b61030b610804565b6040516102fa919061296d565b61032b610326366004612980565b610896565b6040516001600160a01b0390911681526020016102fa565b6103566103513660046129b5565b6108bd565b005b6103836103663660046129df565b600e60209081526000928352604080842090915290825290205481565b6040519081526020016102fa565b61038361039f366004612980565b600b6020526000908152604090205481565b6103c46103bf366004612a12565b6109d7565b6040516102fa9190612a2d565b6103c46103df366004612a71565b610a43565b6103566103f2366004612a94565b610ab7565b61032b610405366004612ad0565b610ae8565b610383610dd5565b61032b610420366004612980565b600f602052600090815260409020546001600160a01b031681565b61032b610449366004612980565b6019602052600090815260409020546001600160a01b031681565b610383610e5a565b61038361047a366004612b0c565b601260209081526000928352604080842090915290825290205481565b6103566104a5366004612a94565b610eb0565b61038360135481565b6103566104c1366004612b2e565b610ecb565b61032b6104d4366004612980565b6018602052600090815260409020546001600160a01b031681565b61032b6104fd366004612980565b61112a565b610383610510366004612b7f565b61118a565b6103836105233660046129b5565b6114a8565b610356610536366004612ba9565b6114d9565b610383610549366004612a12565b61166d565b61030b61055c366004612980565b6116f3565b61038361056f366004612980565b61178d565b610383610582366004612980565b600c6020526000908152604090205481565b61032b6105a2366004612980565b61186b565b61030b611895565b6007546103839081565b6102ee6105c7366004612a12565b60156020526000908152604090205460ff1681565b6105ef6105ea366004612980565b6118a4565b6040516102fa9190612c1e565b61035661060a366004612c59565b61195e565b61061761196d565b6040516102fa9190612c95565b6103836119ce565b61038361063a366004612980565b611a24565b61035661064d366004612b0c565b6000818152600c6020908152604080832054948352601182528083209383529290522055565b610356610681366004612cec565b611a2f565b610383610694366004612980565b611a67565b61030b6106a7366004612980565b611a72565b6103566106ba366004612a12565b611b26565b6106f56106cd366004612980565b60086020526000908152604090205460ff808216916101008104821691620100009091041683565b6040516102fa93929190612dde565b61032b610712366004612980565b6010602052600090815260409020546001600160a01b031681565b61030b61073b366004612980565b611cc2565b61038361074e366004612e18565b611cdb565b6103836107613660046129b5565b611d19565b6102ee6107743660046129df565b6001600160a01b03918216600090815260056020908152604080832093909416825291909152205460ff1690565b6103836107b0366004612b0c565b601160209081526000928352604080842090915290825290205481565b6103566107db366004612e3d565b611d35565b6103c46107ee366004612a12565b611e3c565b60006107fe82611ea6565b92915050565b60606000805461081390612e77565b80601f016020809104026020016040519081016040528092919081815260200182805461083f90612e77565b801561088c5780601f106108615761010080835404028352916020019161088c565b820191906000526020600020905b81548152906001019060200180831161086f57829003601f168201915b5050505050905090565b60006108a182611ecb565b506000908152600460205260409020546001600160a01b031690565b60006108c88261112a565b9050806001600160a01b0316836001600160a01b03160361093a5760405162461bcd60e51b815260206004820152602160248201527f4552433732313a20617070726f76616c20746f2063757272656e74206f776e656044820152603960f91b60648201526084015b60405180910390fd5b336001600160a01b038216148061095657506109568133610774565b6109c85760405162461bcd60e51b815260206004820152603d60248201527f4552433732313a20617070726f76652063616c6c6572206973206e6f7420746f60448201527f6b656e206f776e6572206f7220617070726f76656420666f7220616c6c0000006064820152608401610931565b6109d28383611f2d565b505050565b6001600160a01b038116600090815260166020908152604091829020805483518184028101840190945280845260609392830182828015610a3757602002820191906000526020600020905b815481526020019060010190808311610a23575b50505050509050919050565b60008281526017602090815260408083206001600160a01b0385168452825291829020805483518184028101840190945280845260609392830182828015610aaa57602002820191906000526020600020905b815481526020019060010190808311610a96575b5050505050905092915050565b610ac13382611f9b565b610add5760405162461bcd60e51b815260040161093190612eb1565b6109d283838361201a565b60008381526017602090815260408083206001600160a01b0386168452825280832080548251818502810185019093528083528493830182828015610b4c57602002820191906000526020600020905b815481526020019060010190808311610b38575b50505060008881526017602090815260408083206001600160a01b038a168452825280832080548251818502810185019093528083529697509295909450919250830182828015610bbc57602002820191906000526020600020905b815481526020019060010190808311610ba8575b50505050509050600060116000888152602001908152602001600020600084600081518110610bed57610bed612efe565b60200260200101518152602001908152602001600020549050600060116000898152602001908152602001600020600085600181518110610c3057610c30612efe565b602002602001015181526020019081526020016000205490506000601160008a8152602001908152602001600020600086600281518110610c7357610c73612efe565b602002602001015181526020019081526020016000205490506000601160008b8152602001908152602001600020600086600081518110610cb657610cb6612efe565b602002602001015181526020019081526020016000205490506000601160008c8152602001908152602001600020600087600181518110610cf957610cf9612efe565b602002602001015181526020019081526020016000205490506000601160008d8152602001908152602001600020600088600281518110610d3c57610d3c612efe565b602002602001015181526020019081526020016000205490506000848688610d649190612f2a565b610d6e9190612f2a565b9050600082610d7d8587612f2a565b610d879190612f2a565b90506001821015610da4578b9a5050505050505050505050610dce565b6001811015610dbf578c9a5050505050505050505050610dce565b60009a50505050505050505050505b9392505050565b600080601c60009054906101000a90046001600160a01b03166001600160a01b031663feaf968c6040518163ffffffff1660e01b815260040160a060405180830381865afa158015610e2b573d6000803e3d6000fd5b505050506040513d601f19601f82011682018060405250810190610e4f9190612f57565b509195945050505050565b600080601a60009054906101000a90046001600160a01b03166001600160a01b031663feaf968c6040518163ffffffff1660e01b815260040160a060405180830381865afa158015610e2b573d6000803e3d6000fd5b6109d283838360405180602001604052806000815250611a2f565b33610ed58361112a565b6001600160a01b031614610f3b5760405162461bcd60e51b815260206004820152602760248201527f596f75206d757374206f776e20746865206361726420746f2061747461636b206044820152661dda5d1a081a5d60ca1b6064820152608401610931565b6001600160a01b038085166000908152600e6020908152604080832087851684528252808320548084526018909252909120549091163314610fbf5760405162461bcd60e51b815260206004820152601d60248201527f4974206973206e6f7420796f7572207475726e20746f2061747461636b0000006044820152606401610931565b6000818152601160209081526040808320858452825280832054868452600b9092529091205480821061101557610ff68183612fa7565b6000848152601160209081526040808320888452909152902055611030565b60008381526011602090815260408083208784529091528120555b6001600160a01b038716330361106c57600083815260186020526040902080546001600160a01b0319166001600160a01b038816179055611094565b600083815260186020526040902080546001600160a01b0319166001600160a01b0389161790555b60006110a1848989610ae8565b6000858152601960205260409081902080546001600160a01b0384166001600160a01b031990911617905551909150859087907f46eb6608276541428f87b50f28308d490578215dff37471f69c923a91573285d90611118908c908c906001600160a01b0392831681529116602082015260400190565b60405180910390a35050505050505050565b6000818152600260205260408120546001600160a01b0316806107fe5760405162461bcd60e51b8152602060048201526018602482015277115490cdcc8c4e881a5b9d985b1a59081d1bdad95b88125160421b6044820152606401610931565b60008082600281111561119f5761119f612dc8565b14806111bc575060018260028111156111ba576111ba612dc8565b145b806111d8575060028260028111156111d6576111d6612dc8565b145b6112145760405162461bcd60e51b815260206004820152600d60248201526c496e76616c696420636c61737360981b6044820152606401610931565b6026805490600061122483612fba565b90915550506026546000808085600281111561124257611242612dc8565b036112cb57611252602254611a67565b915061125f602054611a67565b6000848152600b60209081526040808320869055600c825280832084905580518082018252600381526242746360e81b81840152878452600a9092529091209192506112ab9082613021565b5060008381526009602052604090206112c56023826130e1565b506113fc565b60018560028111156112df576112df612dc8565b03611362576112ef60215461178d565b91506112fc60215461178d565b6000848152600b60209081526040808320869055600c825280832084905580518082018252600381526208ae8d60eb1b81840152878452600a9092529091209192506113489082613021565b5060008381526009602052604090206112c56024826130e1565b600285600281111561137657611376612dc8565b036113fc57611386602054611a24565b9150611393602254611a24565b6000848152600b60209081526040808320869055600c82528083208490558051808201825260048152634c696e6b60e01b81840152878452600a9092529091209192506113e09082613021565b5060008381526009602052604090206113fa6025826130e1565b505b604051806060016040528086600281111561141957611419612dc8565b815260ff808516602080840191909152908416604092830152600086815260089091522081518154829060ff1916600183600281111561145b5761145b612dc8565b02179055506020820151815460409093015162ffff001990931661010060ff9283160262ff000019161762010000919093160291909117905561149e868461217e565b5090949350505050565b600d60205281600052604060002081815481106114c457600080fd5b90600052602060002001600091509150505481565b6003811461151f5760405162461bcd60e51b81526020600482015260136024820152724465636b2073697a65206d757374206265203360681b6044820152606401610931565b33611540838360008161153457611534612efe565b9050602002013561112a565b6001600160a01b0316146115665760405162461bcd60e51b8152600401610931906131bc565b3361157d8383600181811061153457611534612efe565b6001600160a01b0316146115a35760405162461bcd60e51b8152600401610931906131bc565b336115ba8383600281811061153457611534612efe565b6001600160a01b0316146115e05760405162461bcd60e51b8152600401610931906131bc565b3360009081526015602052604081205460ff161515900361163e57601480546001810182556000919091527fce6d7b5282bd9a3661ae061feed1dbda4e52ab073b1f9285be6e155d9c38d4ec0180546001600160a01b031916331790555b336000908152601560209081526040808320805460ff19166001179055601690915290206109d290838361284f565b60006001600160a01b0382166116d75760405162461bcd60e51b815260206004820152602960248201527f4552433732313a2061646472657373207a65726f206973206e6f7420612076616044820152683634b21037bbb732b960b91b6064820152608401610931565b506001600160a01b031660009081526003602052604090205490565b600a602052600090815260409020805461170c90612e77565b80601f016020809104026020016040519081016040528092919081815260200182805461173890612e77565b80156117855780601f1061175a57610100808354040283529160200191611785565b820191906000526020600020905b81548152906001019060200180831161176857829003601f168201915b505050505081565b6000806117986119ce565b905060006117a5826118a4565b90506000816000815181106117bc576117bc612efe565b602002602001015160ff1690506000826001815181106117de576117de612efe565b602002602001015160ff16905060008360028151811061180057611800612efe565b602002602001015160ff16905060008460038151811061182257611822612efe565b602002602001015160ff169050600088828486886118409190612f2a565b61184a9190612f2a565b6118549190612f2a565b61185e9190613203565b9998505050505050505050565b6014818154811061187b57600080fd5b6000918252602090912001546001600160a01b0316905081565b60606001805461081390612e77565b606060006118b183612198565b67ffffffffffffffff8111156118c9576118c9612cd6565b6040519080825280602002602001820160405280156118f2578160200160208202803683370190505b5080519091505b80156119575761190a600a85613230565b82611916600184612fa7565b8151811061192657611926612efe565b60ff90921660209283029190910190910152611943600a85613244565b93508061194f81613258565b9150506118f9565b5092915050565b6119693383836121c1565b5050565b6060601480548060200260200160405190810160405280929190818152602001828054801561088c57602002820191906000526020600020905b81546001600160a01b031681526001909101906020018083116119a7575050505050905090565b600080601b60009054906101000a90046001600160a01b03166001600160a01b031663feaf968c6040518163ffffffff1660e01b815260040160a060405180830381865afa158015610e2b573d6000803e3d6000fd5b600080611798610dd5565b611a393383611f9b565b611a555760405162461bcd60e51b815260040161093190612eb1565b611a618484848461228f565b50505050565b600080611798610e5a565b60606000611afc611a82846122c2565b6000858152600960209081526040808320600a83528184206008909352922054611ab390610100900460ff166122c2565b600088815260086020526040902054611ad49062010000900460ff166122c2565b604051602001611ae89594939291906132fe565b6040516020818303038152906040526123ee565b905080604051602001611b0f9190613460565b604051602081830303815290604052915050919050565b6000611b31336109d7565b90506000611b3e836109d7565b601354600090815260176020908152604080832033845282529091208451929350611b6d92909185019061289a565b5060135460009081526017602090815260408083206001600160a01b038716845282529091208251611ba19284019061289a565b50611be960135483600081518110611bbb57611bbb612efe565b60200260200101516000818152600c6020908152604080832054948352601182528083209383529290522055565b611c0260135483600181518110611bbb57611bbb612efe565b611c1b60135483600281518110611bbb57611bbb612efe565b611c3460135482600081518110611bbb57611bbb612efe565b611c4d60135482600181518110611bbb57611bbb612efe565b611c6660135482600281518110611bbb57611bbb612efe565b60138054336000818152600e602090815260408083206001600160a01b038a16845282528083208590559382526018905291822080546001600160a01b031916909117905581549190611cb883612fba565b9190505550505050565b6009602052600090815260409020805461170c90612e77565b60176020528260005260406000206020528160005260406000208181548110611d0357600080fd5b9060005260206000200160009250925050505481565b601660205281600052604060002081815481106114c457600080fd5b6000611d41338561118a565b90506000611d4f338561118a565b90506000611d5d338561118a565b6040805160038082526080820190925291925060009190602082016060803683370190505090508381600081518110611d9857611d98612efe565b6020026020010181815250508281600181518110611db857611db8612efe565b6020026020010181815250508181600281518110611dd857611dd8612efe565b602090810291909101810191909152336000908152600d8252604090208251611e039284019061289a565b508183857f9a4e201f5ad830fba838f3fcac7a8af37ef43f7c478b1c38ef8cf3855b0d105460405160405180910390a450505050505050565b6001600160a01b0381166000908152600d6020908152604091829020805483518184028101840190945280845260609392830182828015610a375760200282019190600052602060002090815481526020019060010190808311610a235750505050509050919050565b60006001600160e01b03198216632483248360e11b14806107fe57506107fe82612540565b6000818152600260205260409020546001600160a01b0316611f2a5760405162461bcd60e51b8152602060048201526018602482015277115490cdcc8c4e881a5b9d985b1a59081d1bdad95b88125160421b6044820152606401610931565b50565b600081815260046020526040902080546001600160a01b0319166001600160a01b0384169081179091558190611f628261112a565b6001600160a01b03167f8c5be1e5ebec7d5bd14f71427d1e84f3dd0314c0f7b2291e5b200ac8c7c3b92560405160405180910390a45050565b600080611fa78361112a565b9050806001600160a01b0316846001600160a01b03161480611fee57506001600160a01b0380821660009081526005602090815260408083209388168352929052205460ff165b806120125750836001600160a01b031661200784610896565b6001600160a01b0316145b949350505050565b826001600160a01b031661202d8261112a565b6001600160a01b0316146120535760405162461bcd60e51b8152600401610931906134a5565b6001600160a01b0382166120b55760405162461bcd60e51b8152602060048201526024808201527f4552433732313a207472616e7366657220746f20746865207a65726f206164646044820152637265737360e01b6064820152608401610931565b826001600160a01b03166120c88261112a565b6001600160a01b0316146120ee5760405162461bcd60e51b8152600401610931906134a5565b600081815260046020908152604080832080546001600160a01b03199081169091556001600160a01b0387811680865260038552838620805460001901905590871680865283862080546001019055868652600290945282852080549092168417909155905184937fddf252ad1be2c89b69c2b068fc378daa952ba7f163c4a11628f55a4df523b3ef91a4505050565b611969828260405180602001604052806000815250612590565b6000805b82156107fe576121ad600a84613244565b9250806121b981612fba565b91505061219c565b816001600160a01b0316836001600160a01b0316036122225760405162461bcd60e51b815260206004820152601960248201527f4552433732313a20617070726f766520746f2063616c6c6572000000000000006044820152606401610931565b6001600160a01b03838116600081815260056020908152604080832094871680845294825291829020805460ff191686151590811790915591519182527f17307eab39ab6107e8899845ad3d59bd9653f200f220920489ca2b5937696c31910160405180910390a3505050565b61229a84848461201a565b6122a6848484846125c3565b611a615760405162461bcd60e51b8152600401610931906134ea565b6060816000036122e95750506040805180820190915260018152600360fc1b602082015290565b8160005b811561231357806122fd81612fba565b915061230c9050600a83613244565b91506122ed565b60008167ffffffffffffffff81111561232e5761232e612cd6565b6040519080825280601f01601f191660200182016040528015612358576020820181803683370190505b509050815b85156123e55761236e600182612fa7565b9050600061237d600a88613244565b61238890600a613203565b6123929088612fa7565b61239d90603061353c565b905060008160f81b9050808484815181106123ba576123ba612efe565b60200101906001600160f81b031916908160001a9053506123dc600a89613244565b9750505061235d565b50949350505050565b6060815160000361240d57505060408051602081019091526000815290565b60006040518060600160405280604081526020016135b0604091399050600060038451600261243c9190612f2a565b6124469190613244565b612451906004613203565b67ffffffffffffffff81111561246957612469612cd6565b6040519080825280601f01601f191660200182016040528015612493576020820181803683370190505b509050600182016020820185865187015b808210156124ff576003820191508151603f8160121c168501518453600184019350603f81600c1c168501518453600184019350603f8160061c168501518453600184019350603f81168501518453506001830192506124a4565b505060038651066001811461251b576002811461252e57610e4f565b603d6001830353603d6002830353610e4f565b603d6001830353509195945050505050565b60006001600160e01b031982166380ac58cd60e01b148061257157506001600160e01b03198216635b5e139f60e01b145b806107fe57506301ffc9a760e01b6001600160e01b03198316146107fe565b61259a83836126c4565b6125a760008484846125c3565b6109d25760405162461bcd60e51b8152600401610931906134ea565b60006001600160a01b0384163b156126b957604051630a85bd0160e11b81526001600160a01b0385169063150b7a0290612607903390899088908890600401613555565b6020604051808303816000875af1925050508015612642575060408051601f3d908101601f1916820190925261263f91810190613592565b60015b61269f573d808015612670576040519150601f19603f3d011682016040523d82523d6000602084013e612675565b606091505b5080516000036126975760405162461bcd60e51b8152600401610931906134ea565b805181602001fd5b6001600160e01b031916630a85bd0160e11b149050612012565b506001949350505050565b6001600160a01b03821661271a5760405162461bcd60e51b815260206004820181905260248201527f4552433732313a206d696e7420746f20746865207a65726f20616464726573736044820152606401610931565b6000818152600260205260409020546001600160a01b03161561277f5760405162461bcd60e51b815260206004820152601c60248201527f4552433732313a20746f6b656e20616c7265616479206d696e746564000000006044820152606401610931565b6000818152600260205260409020546001600160a01b0316156127e45760405162461bcd60e51b815260206004820152601c60248201527f4552433732313a20746f6b656e20616c7265616479206d696e746564000000006044820152606401610931565b6001600160a01b038216600081815260036020908152604080832080546001019055848352600290915280822080546001600160a01b0319168417905551839291907fddf252ad1be2c89b69c2b068fc378daa952ba7f163c4a11628f55a4df523b3ef908290a45050565b82805482825590600052602060002090810192821561288a579160200282015b8281111561288a57823582559160200191906001019061286f565b506128969291506128d5565b5090565b82805482825590600052602060002090810192821561288a579160200282015b8281111561288a5782518255916020019190600101906128ba565b5b8082111561289657600081556001016128d6565b6001600160e01b031981168114611f2a57600080fd5b60006020828403121561291257600080fd5b8135610dce816128ea565b60005b83811015612938578181015183820152602001612920565b50506000910152565b6000815180845261295981602086016020860161291d565b601f01601f19169290920160200192915050565b602081526000610dce6020830184612941565b60006020828403121561299257600080fd5b5035919050565b80356001600160a01b03811681146129b057600080fd5b919050565b600080604083850312156129c857600080fd5b6129d183612999565b946020939093013593505050565b600080604083850312156129f257600080fd5b6129fb83612999565b9150612a0960208401612999565b90509250929050565b600060208284031215612a2457600080fd5b610dce82612999565b6020808252825182820181905260009190848201906040850190845b81811015612a6557835183529284019291840191600101612a49565b50909695505050505050565b60008060408385031215612a8457600080fd5b82359150612a0960208401612999565b600080600060608486031215612aa957600080fd5b612ab284612999565b9250612ac060208501612999565b9150604084013590509250925092565b600080600060608486031215612ae557600080fd5b83359250612af560208501612999565b9150612b0360408501612999565b90509250925092565b60008060408385031215612b1f57600080fd5b50508035926020909101359150565b60008060008060808587031215612b4457600080fd5b612b4d85612999565b9350612b5b60208601612999565b93969395505050506040820135916060013590565b8035600381106129b057600080fd5b60008060408385031215612b9257600080fd5b612b9b83612999565b9150612a0960208401612b70565b60008060208385031215612bbc57600080fd5b823567ffffffffffffffff80821115612bd457600080fd5b818501915085601f830112612be857600080fd5b813581811115612bf757600080fd5b8660208260051b8501011115612c0c57600080fd5b60209290920196919550909350505050565b6020808252825182820181905260009190848201906040850190845b81811015612a6557835160ff1683529284019291840191600101612c3a565b60008060408385031215612c6c57600080fd5b612c7583612999565b915060208301358015158114612c8a57600080fd5b809150509250929050565b6020808252825182820181905260009190848201906040850190845b81811015612a655783516001600160a01b031683529284019291840191600101612cb1565b634e487b7160e01b600052604160045260246000fd5b60008060008060808587031215612d0257600080fd5b612d0b85612999565b9350612d1960208601612999565b925060408501359150606085013567ffffffffffffffff80821115612d3d57600080fd5b818701915087601f830112612d5157600080fd5b813581811115612d6357612d63612cd6565b604051601f8201601f19908116603f01168101908382118183101715612d8b57612d8b612cd6565b816040528281528a6020848701011115612da457600080fd5b82602086016020830137600060208483010152809550505050505092959194509250565b634e487b7160e01b600052602160045260246000fd5b6060810160038510612e0057634e487b7160e01b600052602160045260246000fd5b93815260ff9283166020820152911660409091015290565b600080600060608486031215612e2d57600080fd5b83359250612ac060208501612999565b600080600060608486031215612e5257600080fd5b612e5b84612b70565b9250612e6960208501612b70565b9150612b0360408501612b70565b600181811c90821680612e8b57607f821691505b602082108103612eab57634e487b7160e01b600052602260045260246000fd5b50919050565b6020808252602d908201527f4552433732313a2063616c6c6572206973206e6f7420746f6b656e206f776e6560408201526c1c881bdc88185c1c1c9bdd9959609a1b606082015260800190565b634e487b7160e01b600052603260045260246000fd5b634e487b7160e01b600052601160045260246000fd5b808201808211156107fe576107fe612f14565b805169ffffffffffffffffffff811681146129b057600080fd5b600080600080600060a08688031215612f6f57600080fd5b612f7886612f3d565b9450602086015193506040860151925060608601519150612f9b60808701612f3d565b90509295509295909350565b818103818111156107fe576107fe612f14565b600060018201612fcc57612fcc612f14565b5060010190565b601f8211156109d257600081815260208120601f850160051c81016020861015612ffa5750805b601f850160051c820191505b8181101561301957828155600101613006565b505050505050565b815167ffffffffffffffff81111561303b5761303b612cd6565b61304f816130498454612e77565b84612fd3565b602080601f831160018114613084576000841561306c5750858301515b600019600386901b1c1916600185901b178555613019565b600085815260208120601f198616915b828110156130b357888601518255948401946001909101908401613094565b50858210156130d15787850151600019600388901b60f8161c191681555b5050505050600190811b01905550565b8181036130ec575050565b6130f68254612e77565b67ffffffffffffffff81111561310e5761310e612cd6565b61311c816130498454612e77565b6000601f82116001811461315057600083156131385750848201545b600019600385901b1c1916600184901b1784556131b5565b600085815260209020601f19841690600086815260209020845b8381101561318a578286015482556001958601959091019060200161316a565b50858310156131a85781850154600019600388901b60f8161c191681555b50505060018360011b0184555b5050505050565b60208082526027908201527f596f75206d757374206f776e20746865206361726420746f2061646420697420604082015266746f206465636b60c81b606082015260800190565b80820281158282048414176107fe576107fe612f14565b634e487b7160e01b600052601260045260246000fd5b60008261323f5761323f61321a565b500690565b6000826132535761325361321a565b500490565b60008161326757613267612f14565b506000190190565b6000815161328181856020860161291d565b9290920192915050565b6000815461329881612e77565b600182811680156132b057600181146132c5576132f4565b60ff19841687528215158302870194506132f4565b8560005260208060002060005b858110156132eb5781548a8201529084019082016132d2565b50505082870194505b5050505092915050565b693d913730b6b2911d101160b11b8152855160009061332481600a850160208b0161291d565b61088b60f21b600a918401918201819052691134b6b0b3b2911d101160b11b600c830152613355601683018961328b565b9081527f2261747472696275746573223a205b7b2274726169745f74797065223a20224360028201526f03630b9b9911610113b30b63ab2911d160851b602282015290506133a6603282018761328b565b9050611f4b60f21b81527f7b2274726169745f74797065223a202241747461636b222c202276616c75652260028201526101d160f51b60228201526134546134466133fd61344061340b6133fd602487018b61326f565b611f4b60f21b815260020190565b7f7b2274726169745f74797065223a2022446566656e6365222c202276616c75658152620111d160ed1b602082015260230190565b8761326f565b615d7d60f01b815260020190565b98975050505050505050565b7f646174613a6170706c69636174696f6e2f6a736f6e3b6261736536342c00000081526000825161349881601d85016020870161291d565b91909101601d0192915050565b60208082526025908201527f4552433732313a207472616e736665722066726f6d20696e636f72726563742060408201526437bbb732b960d91b606082015260800190565b60208082526032908201527f4552433732313a207472616e7366657220746f206e6f6e20455243373231526560408201527131b2b4bb32b91034b6b83632b6b2b73a32b960711b606082015260800190565b60ff81811683821601908111156107fe576107fe612f14565b6001600160a01b038581168252841660208201526040810183905260806060820181905260009061358890830184612941565b9695505050505050565b6000602082840312156135a457600080fd5b8151610dce816128ea56fe4142434445464748494a4b4c4d4e4f505152535455565758595a6162636465666768696a6b6c6d6e6f707172737475767778797a303132333435363738392b2fa2646970667358221220209ba52ae389645a99ed562649a5631192b0844f59d22bf7018a7fb4f97c240264736f6c6343000813003368747470733a2f2f667563687369612d64656665617465642d65726d696e652d3230382e6d7970696e6174612e636c6f75642f697066732f516d58625969767754517274776d3233444c617933744353686d4338677a537334424e70717667525066335636512f322e706e6768747470733a2f2f667563687369612d64656665617465642d65726d696e652d3230382e6d7970696e6174612e636c6f75642f697066732f516d58625969767754517274776d3233444c617933744353686d4338677a537334424e70717667525066335636512f312e706e6768747470733a2f2f667563687369612d64656665617465642d65726d696e652d3230382e6d7970696e6174612e636c6f75642f697066732f516d58625969767754517274776d3233444c617933744353686d4338677a537334424e70717667525066335636512f332e706e67",
  "devdoc": {
    "events": {
      "Approval(address,address,uint256)": {
        "details": "Emitted when `owner` enables `approved` to manage the `tokenId` token."
      },
      "ApprovalForAll(address,address,bool)": {
        "details": "Emitted when `owner` enables or disables (`approved`) `operator` to manage all of its assets."
      },
      "BatchMetadataUpdate(uint256,uint256)": {
        "details": "This event emits when the metadata of a range of tokens is changed. So that the third-party platforms such as NFT market could timely update the images and related attributes of the NFTs."
      },
      "MetadataUpdate(uint256)": {
        "details": "This event emits when the metadata of a token is changed. So that the third-party platforms such as NFT market could timely update the images and related attributes of the NFT."
      },
      "Transfer(address,address,uint256)": {
        "details": "Emitted when `tokenId` token is transferred from `from` to `to`."
      }
    },
    "kind": "dev",
    "methods": {
      "approve(address,uint256)": {
        "details": "See {IERC721-approve}."
      },
      "balanceOf(address)": {
        "details": "See {IERC721-balanceOf}."
      },
      "getApproved(uint256)": {
        "details": "See {IERC721-getApproved}."
      },
      "isApprovedForAll(address,address)": {
        "details": "See {IERC721-isApprovedForAll}."
      },
      "name()": {
        "details": "See {IERC721Metadata-name}."
      },
      "ownerOf(uint256)": {
        "details": "See {IERC721-ownerOf}."
      },
      "safeTransferFrom(address,address,uint256)": {
        "details": "See {IERC721-safeTransferFrom}."
      },
      "safeTransferFrom(address,address,uint256,bytes)": {
        "details": "See {IERC721-safeTransferFrom}."
      },
      "setApprovalForAll(address,bool)": {
        "details": "See {IERC721-setApprovalForAll}."
      },
      "symbol()": {
        "details": "See {IERC721Metadata-symbol}."
      },
      "transferFrom(address,address,uint256)": {
        "details": "See {IERC721-transferFrom}."
      }
    },
    "version": 1
  },
  "userdoc": {
    "kind": "user",
    "methods": {},
    "version": 1
  },
  "storageLayout": {
    "storage": [
      {
        "astId": 99,
        "contract": "contracts/MarketClash.sol:MarketClash",
        "label": "_name",
        "offset": 0,
        "slot": "0",
        "type": "t_string_storage"
      },
      {
        "astId": 101,
        "contract": "contracts/MarketClash.sol:MarketClash",
        "label": "_symbol",
        "offset": 0,
        "slot": "1",
        "type": "t_string_storage"
      },
      {
        "astId": 105,
        "contract": "contracts/MarketClash.sol:MarketClash",
        "label": "_owners",
        "offset": 0,
        "slot": "2",
        "type": "t_mapping(t_uint256,t_address)"
      },
      {
        "astId": 109,
        "contract": "contracts/MarketClash.sol:MarketClash",
        "label": "_balances",
        "offset": 0,
        "slot": "3",
        "type": "t_mapping(t_address,t_uint256)"
      },
      {
        "astId": 113,
        "contract": "contracts/MarketClash.sol:MarketClash",
        "label": "_tokenApprovals",
        "offset": 0,
        "slot": "4",
        "type": "t_mapping(t_uint256,t_address)"
      },
      {
        "astId": 119,
        "contract": "contracts/MarketClash.sol:MarketClash",
        "label": "_operatorApprovals",
        "offset": 0,
        "slot": "5",
        "type": "t_mapping(t_address,t_mapping(t_address,t_bool))"
      },
      {
        "astId": 1150,
        "contract": "contracts/MarketClash.sol:MarketClash",
        "label": "_tokenURIs",
        "offset": 0,
        "slot": "6",
        "type": "t_mapping(t_uint256,t_string_storage)"
      },
      {
        "astId": 3076,
        "contract": "contracts/MarketClash.sol:MarketClash",
        "label": "tokenIdCounter",
        "offset": 0,
        "slot": "7",
        "type": "t_struct(Counter)1722_storage"
      },
      {
        "astId": 3081,
        "contract": "contracts/MarketClash.sol:MarketClash",
        "label": "attributes",
        "offset": 0,
        "slot": "8",
        "type": "t_mapping(t_uint256,t_struct(Attr)3066_storage)"
      },
      {
        "astId": 3085,
        "contract": "contracts/MarketClash.sol:MarketClash",
        "label": "imageMapping",
        "offset": 0,
        "slot": "9",
        "type": "t_mapping(t_uint256,t_string_storage)"
      },
      {
        "astId": 3089,
        "contract": "contracts/MarketClash.sol:MarketClash",
        "label": "classMapping",
        "offset": 0,
        "slot": "10",
        "type": "t_mapping(t_uint256,t_string_storage)"
      },
      {
        "astId": 3093,
        "contract": "contracts/MarketClash.sol:MarketClash",
        "label": "tokenIdAttack",
        "offset": 0,
        "slot": "11",
        "type": "t_mapping(t_uint256,t_uint256)"
      },
      {
        "astId": 3097,
        "contract": "contracts/MarketClash.sol:MarketClash",
        "label": "tokenIdDefense",
        "offset": 0,
        "slot": "12",
        "type": "t_mapping(t_uint256,t_uint256)"
      },
      {
        "astId": 3102,
        "contract": "contracts/MarketClash.sol:MarketClash",
        "label": "recentOpenedPackByPlayer",
        "offset": 0,
        "slot": "13",
        "type": "t_mapping(t_address,t_array(t_uint256)dyn_storage)"
      },
      {
        "astId": 3108,
        "contract": "contracts/MarketClash.sol:MarketClash",
        "label": "matchId",
        "offset": 0,
        "slot": "14",
        "type": "t_mapping(t_address,t_mapping(t_address,t_uint256))"
      },
      {
        "astId": 3112,
        "contract": "contracts/MarketClash.sol:MarketClash",
        "label": "player1InMatch",
        "offset": 0,
        "slot": "15",
        "type": "t_mapping(t_uint256,t_address)"
      },
      {
        "astId": 3116,
        "contract": "contracts/MarketClash.sol:MarketClash",
        "label": "player2InMatch",
        "offset": 0,
        "slot": "16",
        "type": "t_mapping(t_uint256,t_address)"
      },
      {
        "astId": 3122,
        "contract": "contracts/MarketClash.sol:MarketClash",
        "label": "tokenIdDefensePointsInMatch",
        "offset": 0,
        "slot": "17",
        "type": "t_mapping(t_uint256,t_mapping(t_uint256,t_uint256))"
      },
      {
        "astId": 3128,
        "contract": "contracts/MarketClash.sol:MarketClash",
        "label": "tokenIdAttackPointsInMatch",
        "offset": 0,
        "slot": "18",
        "type": "t_mapping(t_uint256,t_mapping(t_uint256,t_uint256))"
      },
      {
        "astId": 3131,
        "contract": "contracts/MarketClash.sol:MarketClash",
        "label": "matchIdCounter",
        "offset": 0,
        "slot": "19",
        "type": "t_uint256"
      },
      {
        "astId": 3134,
        "contract": "contracts/MarketClash.sol:MarketClash",
        "label": "playersWithDecks",
        "offset": 0,
        "slot": "20",
        "type": "t_array(t_address)dyn_storage"
      },
      {
        "astId": 3138,
        "contract": "contracts/MarketClash.sol:MarketClash",
        "label": "playerHasDeck",
        "offset": 0,
        "slot": "21",
        "type": "t_mapping(t_address,t_bool)"
      },
      {
        "astId": 3143,
        "contract": "contracts/MarketClash.sol:MarketClash",
        "label": "deckOfPlayer",
        "offset": 0,
        "slot": "22",
        "type": "t_mapping(t_address,t_array(t_uint256)dyn_storage)"
      },
      {
        "astId": 3150,
        "contract": "contracts/MarketClash.sol:MarketClash",
        "label": "deckUsedInMatchByPlayer",
        "offset": 0,
        "slot": "23",
        "type": "t_mapping(t_uint256,t_mapping(t_address,t_array(t_uint256)dyn_storage))"
      },
      {
        "astId": 3154,
        "contract": "contracts/MarketClash.sol:MarketClash",
        "label": "turnOfPlayer",
        "offset": 0,
        "slot": "24",
        "type": "t_mapping(t_uint256,t_address)"
      },
      {
        "astId": 3158,
        "contract": "contracts/MarketClash.sol:MarketClash",
        "label": "winnerOfMatch",
        "offset": 0,
        "slot": "25",
        "type": "t_mapping(t_uint256,t_address)"
      },
      {
        "astId": 3161,
        "contract": "contracts/MarketClash.sol:MarketClash",
        "label": "priceFeedBtc",
        "offset": 0,
        "slot": "26",
        "type": "t_contract(AggregatorV3Interface)45"
      },
      {
        "astId": 3164,
        "contract": "contracts/MarketClash.sol:MarketClash",
        "label": "priceFeedETH",
        "offset": 0,
        "slot": "27",
        "type": "t_contract(AggregatorV3Interface)45"
      },
      {
        "astId": 3167,
        "contract": "contracts/MarketClash.sol:MarketClash",
        "label": "priceFeedLink",
        "offset": 0,
        "slot": "28",
        "type": "t_contract(AggregatorV3Interface)45"
      },
      {
        "astId": 3171,
        "contract": "contracts/MarketClash.sol:MarketClash",
        "label": "btcuscAddress",
        "offset": 0,
        "slot": "29",
        "type": "t_address"
      },
      {
        "astId": 3174,
        "contract": "contracts/MarketClash.sol:MarketClash",
        "label": "ethusdAddress",
        "offset": 0,
        "slot": "30",
        "type": "t_address"
      },
      {
        "astId": 3177,
        "contract": "contracts/MarketClash.sol:MarketClash",
        "label": "linkusdAddress",
        "offset": 0,
        "slot": "31",
        "type": "t_address"
      },
      {
        "astId": 3180,
        "contract": "contracts/MarketClash.sol:MarketClash",
        "label": "highMultiplier",
        "offset": 0,
        "slot": "32",
        "type": "t_uint256"
      },
      {
        "astId": 3183,
        "contract": "contracts/MarketClash.sol:MarketClash",
        "label": "mediumMultiplier",
        "offset": 0,
        "slot": "33",
        "type": "t_uint256"
      },
      {
        "astId": 3186,
        "contract": "contracts/MarketClash.sol:MarketClash",
        "label": "lowMultiplier",
        "offset": 0,
        "slot": "34",
        "type": "t_uint256"
      },
      {
        "astId": 3189,
        "contract": "contracts/MarketClash.sol:MarketClash",
        "label": "btcImage",
        "offset": 0,
        "slot": "35",
        "type": "t_string_storage"
      },
      {
        "astId": 3192,
        "contract": "contracts/MarketClash.sol:MarketClash",
        "label": "ethImage",
        "offset": 0,
        "slot": "36",
        "type": "t_string_storage"
      },
      {
        "astId": 3195,
        "contract": "contracts/MarketClash.sol:MarketClash",
        "label": "linkImage",
        "offset": 0,
        "slot": "37",
        "type": "t_string_storage"
      },
      {
        "astId": 3198,
        "contract": "contracts/MarketClash.sol:MarketClash",
        "label": "currentTokenId",
        "offset": 0,
        "slot": "38",
        "type": "t_uint256"
      }
    ],
    "types": {
      "t_address": {
        "encoding": "inplace",
        "label": "address",
        "numberOfBytes": "20"
      },
      "t_array(t_address)dyn_storage": {
        "base": "t_address",
        "encoding": "dynamic_array",
        "label": "address[]",
        "numberOfBytes": "32"
      },
      "t_array(t_uint256)dyn_storage": {
        "base": "t_uint256",
        "encoding": "dynamic_array",
        "label": "uint256[]",
        "numberOfBytes": "32"
      },
      "t_bool": {
        "encoding": "inplace",
        "label": "bool",
        "numberOfBytes": "1"
      },
      "t_contract(AggregatorV3Interface)45": {
        "encoding": "inplace",
        "label": "contract AggregatorV3Interface",
        "numberOfBytes": "20"
      },
      "t_enum(Class)3058": {
        "encoding": "inplace",
        "label": "enum MarketClash.Class",
        "numberOfBytes": "1"
      },
      "t_mapping(t_address,t_array(t_uint256)dyn_storage)": {
        "encoding": "mapping",
        "key": "t_address",
        "label": "mapping(address => uint256[])",
        "numberOfBytes": "32",
        "value": "t_array(t_uint256)dyn_storage"
      },
      "t_mapping(t_address,t_bool)": {
        "encoding": "mapping",
        "key": "t_address",
        "label": "mapping(address => bool)",
        "numberOfBytes": "32",
        "value": "t_bool"
      },
      "t_mapping(t_address,t_mapping(t_address,t_bool))": {
        "encoding": "mapping",
        "key": "t_address",
        "label": "mapping(address => mapping(address => bool))",
        "numberOfBytes": "32",
        "value": "t_mapping(t_address,t_bool)"
      },
      "t_mapping(t_address,t_mapping(t_address,t_uint256))": {
        "encoding": "mapping",
        "key": "t_address",
        "label": "mapping(address => mapping(address => uint256))",
        "numberOfBytes": "32",
        "value": "t_mapping(t_address,t_uint256)"
      },
      "t_mapping(t_address,t_uint256)": {
        "encoding": "mapping",
        "key": "t_address",
        "label": "mapping(address => uint256)",
        "numberOfBytes": "32",
        "value": "t_uint256"
      },
      "t_mapping(t_uint256,t_address)": {
        "encoding": "mapping",
        "key": "t_uint256",
        "label": "mapping(uint256 => address)",
        "numberOfBytes": "32",
        "value": "t_address"
      },
      "t_mapping(t_uint256,t_mapping(t_address,t_array(t_uint256)dyn_storage))": {
        "encoding": "mapping",
        "key": "t_uint256",
        "label": "mapping(uint256 => mapping(address => uint256[]))",
        "numberOfBytes": "32",
        "value": "t_mapping(t_address,t_array(t_uint256)dyn_storage)"
      },
      "t_mapping(t_uint256,t_mapping(t_uint256,t_uint256))": {
        "encoding": "mapping",
        "key": "t_uint256",
        "label": "mapping(uint256 => mapping(uint256 => uint256))",
        "numberOfBytes": "32",
        "value": "t_mapping(t_uint256,t_uint256)"
      },
      "t_mapping(t_uint256,t_string_storage)": {
        "encoding": "mapping",
        "key": "t_uint256",
        "label": "mapping(uint256 => string)",
        "numberOfBytes": "32",
        "value": "t_string_storage"
      },
      "t_mapping(t_uint256,t_struct(Attr)3066_storage)": {
        "encoding": "mapping",
        "key": "t_uint256",
        "label": "mapping(uint256 => struct MarketClash.Attr)",
        "numberOfBytes": "32",
        "value": "t_struct(Attr)3066_storage"
      },
      "t_mapping(t_uint256,t_uint256)": {
        "encoding": "mapping",
        "key": "t_uint256",
        "label": "mapping(uint256 => uint256)",
        "numberOfBytes": "32",
        "value": "t_uint256"
      },
      "t_string_storage": {
        "encoding": "bytes",
        "label": "string",
        "numberOfBytes": "32"
      },
      "t_struct(Attr)3066_storage": {
        "encoding": "inplace",
        "label": "struct MarketClash.Attr",
        "members": [
          {
            "astId": 3061,
            "contract": "contracts/MarketClash.sol:MarketClash",
            "label": "Class",
            "offset": 0,
            "slot": "0",
            "type": "t_enum(Class)3058"
          },
          {
            "astId": 3063,
            "contract": "contracts/MarketClash.sol:MarketClash",
            "label": "attack",
            "offset": 1,
            "slot": "0",
            "type": "t_uint8"
          },
          {
            "astId": 3065,
            "contract": "contracts/MarketClash.sol:MarketClash",
            "label": "defence",
            "offset": 2,
            "slot": "0",
            "type": "t_uint8"
          }
        ],
        "numberOfBytes": "32"
      },
      "t_struct(Counter)1722_storage": {
        "encoding": "inplace",
        "label": "struct Counters.Counter",
        "members": [
          {
            "astId": 1721,
            "contract": "contracts/MarketClash.sol:MarketClash",
            "label": "_value",
            "offset": 0,
            "slot": "0",
            "type": "t_uint256"
          }
        ],
        "numberOfBytes": "32"
      },
      "t_uint256": {
        "encoding": "inplace",
        "label": "uint256",
        "numberOfBytes": "32"
      },
      "t_uint8": {
        "encoding": "inplace",
        "label": "uint8",
        "numberOfBytes": "1"
      }
    }
  }
}